:020000020000FC
:0200000029C015
:1000500056C0189513D021D036D042D07894109144
:100060007A00106410937A00112710917A0016FD1F
:10007000FBCF00917900009507BDF1CF0F9302EC03
:100080000093850007EF0093840005E00093810052
:1000900001E000936F000F9108950F9300E8006056
:1000A000076000937A0001E000937B0001E00064A8
:1000B000006200937C0002E000937E0000E0009369
:1000C00064000F9108950F93279A00E007BD00EA9E
:1000D000036004BD02E005BD00E0009364000F91E1
:1000E0000F9307E60093C40000E00093C50008E00A
:1000F0000093C10006E00093C2000F9108950F9392
:100100000FB70F9302EC0093850007EF0093840074
:10011000009179001091C00015FFFCCF0093C6003C
:100120000F910FBF0F91189529E236E940E84A95E3
:0A013000F1F73A95E1F72A95D1F7AF
:00000001FF
