:020000020000FC
:040000000C94360026
:100064000C9453001895189501E800BB002708D09C
:100074007894889A0E947E0088980E947E00F9CF26
:100084000F9307E60093C40000E00093C50000E866
:10009400006108600093C10006E00093C2000F9164
:1000A40008950F930FB70F930091C6000F9313D0C9
:1000B4000F91003339F42FB1207811F48F9A07C0CF
:1000C4008F9805C0017011F48F9A01C08F980F9119
:1000D4000FBF0F911895DF93CF93CDB7DEB70F9372
:1000E4000E8103951091C00015FFFCCF0093C6004C
:1000F4000F91CF91DF91089522E53BE240E04A95CC
:10010400F1F73A95E1F72A95D1F7C89500000895DB
:00000001FF
